:10072300100C24A4A4A4A5A6A4A4A4A424140C007B
:100733004040405F4A4A4A4A4A4A4A5F4040400072
:1007430080804020504844C344485020408080006B
:100753004040424A7242427F4242625A4240400013
:100763000000FE92929292FE92929292FE000000FC
:100773008084444424140C0704044484443C00004F
:10078300000484844C54252624544C84840400009F
:10079300010180601F0000000000FF000001010054
:1007A3000008C8388F082810FC4B48F94A4808004D
:1007B3000423702C23287000FF22223F22222000D2
:1007C300008060F80708484848FF48484848080040
:1007D300010000FF0002020202FF020212221E00B9
:1007E3004030EF246448487F4848487F48484000E9
:1007F30001017F211100FF4949494949FF000000D8
:1008030000000000000000000000000000000000E5
:1008130000000000000000000000000000000000D5
:03000E00013500B9
:10001E007508037509807B007A0079087F0312004A
:0F002E006675090E7B007A0079087F0402006670
:100A77007508037509557B007A007908E4FF0200C1
:010A87006608
:1009D900E4F508750901750A01F50BF50C750DCBE0
:1009E900750E44750F01FB7A007908FF1202BAE40B
:1009F900F508F509750A01F50BF50C750D96750ED7
:100A090088750F01FB7A0079087F011202BA750A0D
:100A190001750B01E4F50C750DF7750E36750F01AF
:0A0A2900FB7A0079087F020202BA8E
:1008230012001E120A771209D9D2AFC2B77F64121F
:100833000A88D2B77F64120A8820B225C2B27F64C5
:10084300120A8820B60DC2B67BFF7A077923750C8E
:100853000380097BFF7A0779E3750C017D08120990
:100863005A20B325C2B37F64120A8820B50DC2B5DE
:100873007BFF7A077983750C0380097BFF7A0779FD
:10088300E3750C017D0812095A30B40C30C80930E5
:10089300C90630B50320B62230B40C30C80930C9BC
:1008A3000630B50320B6137F64120A887BFF7A07EC
:1008B30079E3750C017D0812095A7BFF7A087903E5
:0B08C300750C017D0812095A02082E76
:090011000132000133000134004A
:1002BA00AD07EDD3940240037F0122ED60030203F0
:1002CA004EC28C900002120564B40104D2A98002C5
:1002DA00C2A9900001120564B40104D2B98002C215
:1002EA00B912054BFED3940340037F0222E58954D9
:1002FA00FC4EF589900003120564FFB40103538E86
:10030A007FEF7003438E80EFB402054389048003B4
:10031A005389FB900004120564B40105438F0180E0
:10032A0003538FFE900005120591E5F0F58C9000BD
:10033A0005120591F58A900007120564B40102D2EC
:10034A008C7F0022ED640160030203D9C28E900003
:10035A0002120564B40104D2AB8002C2AB90000160
:10036A00120564B40104D2BB8002C2BB12054BFE63
:10037A00C3940340037F0222E58954CF4EF5899046
:10038A000003120564FFB40103538EBFEF700343E9
:10039A008E40EFB4020543894080035389BF900021
:1003AA0004120564B40105438F028003538FFD9044
:1003BA000005120591E5F0F58D900005120591F5FD
:1003CA008B900007120564B40102D28E7F0022EDE1
:1003DA0064027074538EEF900002120564B4010532
:1003EA0043AF04800353AFFB900003120564FED3AE
:1003FA00940240037F0222EEB40103538EFB900065
:10040A00031205647003438E04900003120564B45A
:10041A000205438E088003538EF790000412056488
:10042A00B40105438F048003538FFB900005120526
:10043A0091FDACF0ECF5D68DD7900007120564B4A7
:0B044A000103438E107F00227F02227E
:03000B0002003DB3
:10003D00C0E0C0D0E532C394C84005B2C1753200EE
:07004D000532D0D0D0E032F3
:03001B00020A33A3
:100A3300C0E0C0D0E533C394C84005B2C2753300EB
:070A43000533D0D0D0E032F2
:03006300020A4A44
:100A4A00C0E0C0D0E534C394C84005B2C3753400D1
:070A5A000534D0D0D0E032DA
:10006600EFD3940740037F012212054BFED394037E
:1000760040037F0222EF7041EE700B9000011205E3
:1000860064F45293529412054BB4010B9000011282
:1000960005644293F4529412054BFEB4020A900092
:1000A6000112056442934294EEB4030D90000112CE
:1000B6000564FEF45293EE4294EF64017043120518
:1000C6004BFE700B900001120564F452915292EEB1
:1000D600B4010B9000011205644291F4529212058C
:1000E6004BB4020A90000112056442914292120535
:1000F6004BB4030D900001120564FEF45291EE42DA
:1001060092EF6402704312054BFE700B90000112D1
:100116000564F452955296EEB4010B900001120557
:10012600644295F4529612054BB4020A90000112ED
:1001360005644295429612054BB4030D90000112D8
:100146000564FEF45295EE4296EF64037043120581
:100156004BFE700B900001120564F452B152B2EEE0
:10016600B4010B90000112056442B1F452B21205BB
:100176004BB4020A90000112056442B142B2120564
:100186004BB4030D900001120564FEF452B1EE4229
:10019600B2EF6404704312054BFE700B900001121F
:1001A6000564F452B352B4EEB4010B90000112058B
:1001B6006442B3F452B412054BB4020A9000011221
:1001C600056442B342B412054BB4030D900001120C
:1001D6000564FEF452B3EE42B4EF640570431205B3
:1001E6004BFE700B900001120564F452C952CAEE20
:1001F600B4010B90000112056442C9F452CA1205FB
:100206004BB4020A90000112056442C942CA1205A3
:100216004BB4030D900001120564FEF452C9EE4280
:10022600CAEF6406704312054BFE700B9000011274
:100236000564F452CB52CCEEB4010B9000011205CA
:100246006442CBF452CC12054BB4020A9000011260
:10025600056442CB42CC12054BB4030D900001124B
:100266000564FEF452CBEE42CCEF640770431205F0
:100276004BFF700B900001120564F452E152E2EF5D
:10028600B4010B90000112056442E1F452E212053A
:100296004BB4020A90000112056442E142E21205E3
:1002A6004BB4030D900001120564FFF452E1EF42D6
:0402B600E27F0022C1
:0F0A88007D1C7C08ED1D70011C144C70F7DFF114
:010A9700223C
:0D0A6100D282C282120A6E120A6E120A6E52
:080A6E007FFAAE071FEE70FADB
:010A7600225D
:0605C9007B007A00790DB1
:1005CF00E4F531E4F530C3740F9530FFE494008FF8
:1005DF0082F583120564FD7C0074017E00A831084A
:1005EF008005C333CE33CED8F9FFEE5CFEEF5D4E00
:1005FF006004C2848002D284C286D2860530E53080
:10060F00B410C3D280C280E4F53074017E00A830EC
:10061F00088005C333CE33CED8F9FDAC0674017E06
:10062F0000A831088005C333CE33CED8F9FFEE5C76
:10063F00FEEF5D4E6004C2848002D284C286D286F1
:10064F000530E530B410C3120A61D284E4F530C22C
:10065F0086D2860530E530B410F5D282C2820531DC
:10066F00E531C3940850030205D2E4F531E4F530C7
:10067F00C3741F9530FFE494008F82F583120564D5
:10068F00FD7C0074017E00A831088005C333CE3392
:10069F00CED8F9FFEE5CFEEF5D4E6004C28480029F
:1006AF00D284C286D2860530E530B410C3D280C260
:1006BF0080E4F53074017E00A830088005C333CE86
:1006CF0033CED8F9FDAC06E47E01A831088005C30E
:1006DF0033CE33CED8F9FFEE5CFEEF5D4E6004C231
:1006EF00848002D284C286D2860530E530B410C42D
:1006FF00120A61D284E4F530C286D2860530E53025
:10070F00B410F5D282C2820531E531C3940850038B
:03071F0002067C53
:0107220022B4
:08095A008B088A09890A8D0B44
:10096200E4F52DE52DC3950C5058E52D25E0F52E27
:1009720075F010A4AB08250AF9E50935F0FA780DEF
:100982007C007D007E007F10120525E52E75F0109B
:10099200A4AB08250AF9E50935F0FAE92410F9E4CF
:1009A2003AFA781D7C007D007E007F1012052585B5
:1009B2000B2FAF2F152FEF60051205C980F4052DFF
:1009C20080A1E50B75F00AA4F52FAF2F152FEF606C
:0609D200051205C980F4C6
:0109D80022FC
:030000000208CE25
:0C08CE00787FE4F6D8FD7581350209152D
:10045500E709F608DFFA8046E709F208DFFA803E89
:1004650088828C83E709F0A3DFFA8032E309F60876
:10047500DFFA8078E309F208DFFA807088828C83DE
:10048500E309F0A3DFFA806489828A83E0A3F60892
:10049500DFFA805889828A83E0A3F208DFFA804C6C
:1004A50080D280FA80C680D4806980F28033801043
:1004B50080A680EA809A80A880DA80E280CA8033AC
:1004C50089828A83ECFAE493A3C8C582C8CCC58324
:1004D500CCF0A3C8C582C8CCC583CCDFE9DEE780F4
:1004E5000D89828A83E493A3F608DFF9ECFAA9F073
:1004F500EDFB2289828A83ECFAE0A3C8C582C8CCC9
:10050500C583CCF0A3C8C582C8CCC583CCDFEADEE1
:10051500E880DB89828A83E493A3F208DFF980CC43
:1005250088F0EF60010E4E60C388F0ED2402B4043C
:100535000050B9F582EB2402B4040050AF232345E3
:0605450082239004A5735F
:10054B00BB010689828A83E0225002E722BBFE02AE
:09055B00E32289828A83E49322E1
:10056400BB010CE58229F582E5833AF583E022504C
:1005740006E92582F8E622BBFE06E92582F8E22296
:0D058400E58229F582E5833AF583E49322B0
:10059100BB0110E58229F582E5833AF583E0F5F0A8
:1005A100A3E0225009E92582F886F008E622BBFE85
:1005B1000AE92582F8E2F5F008E222E5832AF583CB
:0805C100E993F5F0A3E9932290
:1008DA00020823E493A3F8E493A34003F68001F209
:1008EA0008DFF48029E493A3F85407240CC8C3331F
:1008FA00C4540F4420C8834004F456800146F6DFEE
:10090A00E4800B010204081020408090000EE47E6F
:10091A00019360BCA3FF543F30E509541FFEE493E2
:10092A00A360010ECF54C025E060A840B8E493A3A9
:10093A00FAE493A3F8E493A3C8C582C8CAC583CAD4
:10094A00F0A3C8C582C8CAC583CADFE9DEE780BE8C
:01001A0000E5
:00000001FF
